:020000040800F2
:100000002827002015E500081DE500084B2C0108F5
:1000100021E5000823E5000825E5000800000000B0
:1000200000000000000000000000000027E50008BC
:1000300029E5000800000000972B0108C312010801
:100040002FE500082FE500082FE500082FE5000840
:100050002FE500082FE5000881E9000893E9000872
:10006000A5E90008B7E90008C9E900082FE500087C
:100070002FE500082FE500082FE500082FE5000810
:100080002FE500082FE500082FE500087B0B01088D
:10009000370C01084D0C0108630C0108DBE900086E
:1000A0002FE500082FE500082FE500082FE50008E0
:1000B0002FE500082FE500082FE500082FE50008D0
:1000C0002FE500082FE500082FE500082FE50008C0
:1000D0002FE50008E3F100082FE500081DF20008F5
:1000E00009EA00082FE500082FE500082FE50008C1
:1000F0002FE500082FE500082FE500082FE5000890
:100100002FE500082FE500082FE500082FE500087F
:100110002FE500082FE500082FE500082FE500086F
:100120002FE500082FE50008F5F100082FE500088D
:100130002FE500082FE500082FE500082FE500084F
:100140002FE500082FE500082FE500082FE500083F
:100150002FE500082FE5000809F200082FE5000848
:100160002FE500082FE500082FE500082FE500081F
:100170002FE500082FE500082FE50008000000002B
:100180002FE500082FE5000800F002F800F071F8F4
:100190000AA090E8000C82448344AAF10107DA45E2
:1001A00001D100F066F8AFF2090EBAE80F0013F0C3
:1001B000010F18BFFB1A43F001031847A082020089
:1001C000C08202000A444FF0000C10F8013B13F00B
:1001D000070408BF10F8014B1D1108BF10F8015BA0
:1001E000641E05D010F8016B641E01F8016BF9D193
:1001F00013F0080F1EBF10F8014BAD1C0C1B09D1EA
:100200006D1E58BF01F801CBFAD505E014F8016B5B
:1002100001F8016B6D1EF9D59142D6D370470000ED
:100220000023002400250026103A28BF78C1FBD8FF
:10023000520728BF30C148BF0B607047642922F0C5
:100240002385732923F00382002070471FB524F013
:1002500095FC23F0ABFA04000020002124F050F8B4
:10026000401C606023F06EFC1FBD10B523F0D3FC72
:1002700010BD23F003FD1146FFF7E8FF00F0A8F8DA
:1002800023F0CCFE03B4FFF7F0FF03BC18F06BFCC7
:10029000002804D090FAA0F0B0FA80F0401C70471B
:1002A000704722480068704770B5044612F05CFC45
:1002B00005461E480460284612F05AFC70BD10B571
:1002C0001A480068401C1949086004F0FAF804460E
:1002D000A06C401EA064A06C48B9606CA06494F847
:1002E000340040F0080084F8340004F085FB04F08A
:1002F0000DFF10BD0146002902DA4FF0FF3014E077
:100300004FF47A7291FBF2F24FF47A7302FB03F02E
:100310001A4691FBF2F302FB13124FF47A735A431D
:1003200002F2E73292FBF3F2104470470000002023
:100330000020704700207047002070470020704761
:1003400010B5264C02E020688047241D24488442D2
:10035000F9D310BD10B5224C02E020688047241D5F
:1003600020488442F9D310BD10B50446FFF7F2FFD0
:1003700006F09FFE10BD1CB514200A214FF4006347
:100380000022CDE90010AFF21F0117A004F01FFA00
:10039000044624B9C822164916A002F093FF20464D
:1003A00004F099F91CBD10B512F0DEFB10F0C3FF8C
:1003B00002F0D6FE04F086FF03F0C3FEFFF7DBFF7A
:1003C00004F08CFF00F059FB03F001FF002010BD8A
:1003D00010B5FFF7E8FF002010BD00008C81020877
:1003E000A4810208C48102086D61696E00000000EA
:1003F000864B020874696420213D2052545F4E559B
:100400004C4C00002DE9F041064604F05AF808B1C2
:1004100003F0C0FF092003F05DFC044624B97C22F0
:10042000F549F6A002F04EFF656810E0A5F10C0753
:1004300008223146384602F0AAFB38B904F041F8E8
:1004400008B103F0B5FF3846BDE8F0812D68201DE6
:100450008542EBD104F035F808B103F0A9FF002084
:10046000F2E770B504460D46164614B94FF0FF305A
:1004700070BD2846FFF7C6FF10B14FF0FF30F7E719
:100480002A460921204603F07CFCE6820020A07663
:10049000208300BFECE710B5044624B95222DD49A1
:1004A000DDA002F00FFF204603F05CFD092804D018
:1004B0005322D849DCA002F005FF204603F041FD9D
:1004C00020B95422D349E7A002F0FCFE204603F0F5
:1004D0009EFC002010BD002070472DE9F04106462B
:1004E0000C464027E01C20F003042744384603F064
:1004F0002BF805462DB140220021284602F059FA7A
:100500002E752846BDE8F08110B5044624B9BA22FC
:10051000DE49C1A002F0D6FE204603F023FD0928E3
:1005200004D0BB22D949C0A002F0CCFE204603F083
:1005300008FD20B1BC22D549D5A002F0C3FE20465B
:1005400003F065FC204603F004F910BD70B50446C5
:10055000002524B9D122DB49AFA002F0B3FE606AC6
:1005600090B1A07D00F0100070B92046616A884704
:1005700005462DB12A462146D3A002F0C1FD03E075
:10058000E08A40F01000E082284670BD70B5044655
:100590000E46002524B9F422D9499FA002F092FE0C
:1005A000204603F0DFFC092804D0F522D4499EA0A0
:1005B00002F088FEA07D00F0100088B9606A58B192
:1005C0002046616A8847054635B12A462146BEA0C5
:1005D00002F096FD284670BDE08A40F01000E082EF
:1005E000A07D00F0080030B1207E00F0080010B1BE
:1005F0006FF00600EFE7A06A28B131462046A26AF4
:100600009047054603E040F60F70304020830DB15F
:10061000A81D70B9208B40F008002083A07E401CEC
:10062000A076A07E28B940F22312B549B5A002F009
:1006300049FE2846CFE770B5044600252CB940F2A4
:100640003512B54974A002F03DFE204603F08AFC45
:10065000092805D04FF49B72AF4973A002F032FE17
:10066000A07E10B94FF0FF3070BDA07E401EA07676
:10067000A07E08B10020F7E7E06A18B12046E16AE1
:10068000884705460DB1A81D08B9002020832846DB
:10069000EAE72DE9F04104460D4616461F462CB9FF
:1006A00040F25F129D495CA002F00CFE204603F070
:1006B00059FC092805D04FF4B07298495AA002F0AD
:1006C00001FEA07E30B94FF0FF3002F051F900205A
:1006D000BDE8F081206B38B13B46324629462046C2
:1006E000D4F830C0E047F3E76FF0050002F040F9BE
:1006F0000020EDE72DE9F04104460D4616461F4661
:100700002CB94FF4C372864943A002F0DBFD2046AA
:1007100003F028FC092805D040F28712804942A046
:1007200002F0D0FDA07E30B94FF0FF3002F020F98A
:100730000020BDE8F081606B38B13B463246294667
:100740002046D4F834C0E047F3E76FF0050002F02C
:100750000FF90020EDE770B504460D4616462CB99A
:1007600040F2A7126F492CA002F0ACFD204603F026
:10077000F9FB092805D04FF4D4726A492AA002F087
:10078000A1FDA06B28B1324629462046A36B9847AD
:1007900070BD6FF00500FBE770B504460D462CB93F
:1007A00040F2C11260491CA002F08CFD204603F00B
:1007B000D9FB092805D04FF4E1725B491AA002F079
:1007C00081FDE561002070BD70B504460D462CB971
:1007D00040F2D712554910A002F074FD204603F0F4
:1007E000C1FB092805D04FF4EC7250490EA002F06D
:1007F00069FD2562002070BDAF4B0208696E666F0F
:10080000726D6174696F6E20213D2052545F4E55A8
:100810004C4C00009A4B020864657620213D205222
:10082000545F4E554C4C000072745F6F626A656392
:10083000745F6765745F7479706528266465762DCA
:100840003E706172656E7429203D3D2052545F4FA9
:10085000626A6563745F436C6173735F4465766954
:100860006365000072745F6F626A6563745F6973C9
:100870005F73797374656D6F626A6563742826644B
:1008800065762D3E706172656E742900BE4B02085C
:1008900072745F6F626A6563745F69735F737973A3
:1008A00074656D6F626A65637428266465762D3E93
:1008B000706172656E7429203D3D2052545F46413F
:1008C0004C534500D04B0208546F20696E6974691F
:1008D000616C697A65206465766963653A25732081
:1008E0006661696C65642E20546865206572726F5C
:1008F0007220636F64652069732025640A0000001C
:10090000DF4B02086465762D3E7265665F636F7526
:100910006E7420213D203000EE4B0208FE4B020891
:100920000D4C02081D4C02082F4C0208494C0208CD
:100930002DE9F04105466FF0020712F015F9064661
:10094000002409E0664850F8240020B9644840F8C3
:100950002450002702E0641C042CF3D300BF30466F
:1009600012F006F93846BDE8F0812DE9F041054660
:100970006FF0050712F0F8F8064600240BE058481F
:1009800050F82400A84205D10020554941F8240020
:10099000002702E0641C042CF1D300BF304612F0A3
:1009A000E7F83846BDE8F08170B54EE000BF12F0C0
:1009B000DBF8064601F0BAFF40B14A494AA002F00E
:1009C0009FFBA022474952A002F07CFC304612F067
:1009D000CFF800BF12F0C8F8054600F078F830B341
:1009E0004C480068A0F1140404F11400D0E900217F
:1009F0005160D0E9001211604060006000BF03F058
:100A0000C9FCA06F10B12046A16F8847204603F0B3
:100A100098FA012808D1204603F0F9F903F0C8FC40
:100A2000284612F0A5F870BD03F0C2FC03E028468A
:100A300012F09EF8F7E7284612F09AF8A06A02F042
:100A400088FE204603F051FA00BF00F040F800286D
:100A5000ACD100BFE7E70FE0002408E0204850F8E1
:100A6000240018B11E4951F824008047641C042C4E
:100A7000F4D3FFF799FF00BFEEE710B586B000246E
:100A80001CE0224624A104A802F09BFB20211F2287
:100A9000CB00234800EB0420CDE901320391009004
:100AA000204901EBC41000231F4A04A903F0B1FD43
:100AB0001C4901EBC41003F00EFE641C002CE0D0B6
:100AC00006B010BD0021174800EBC1107047114956
:100AD0000868884201D0012070470020FCE7000030
:100AE00090070020634C020846756E6374696F6E50
:100AF0005B25735D207368616C6C206E6F7420627F
:100B000065207573656420696E204953520A0000A0
:100B100030000000F00000207469646C65256400FA
:100B20009006002010060020570A00084268116055
:100B300042684A604160086070472DE9F04105460F
:100B40000C469046204603F05CFFB8F1000F03D03E
:100B5000B8F1010F23D105E004F114012846FFF795
:100B6000E5FF1CE02E680FE0A6F1140794F83500AD
:100B700097F83510884206DA04F1140107F11400E1
:100B8000FFF7D4FF02E03668AE42EDD100BFAE42BF
:100B900004D104F114012846FFF7C8FF00BF00BFCD
:100BA0000020BDE8F08170B505460EE011F0DCFFD5
:100BB00006462868A0F114044FF0FF302063204659
:100BC00003F04CFD304611F0D3FF284601F04EFEF5
:100BD0000028EBD0002070BD2DE9F04104460E4600
:100BE00015461F4624B9CC22F649F7A002F06AFB4D
:100BF000B5F5803F04D3CD22F249F7A002F062FBA5
:100C000032460221204603F0BCF8204601F036FEB1
:100C1000A58367720020BDE8F08110B5044624B9B1
:100C2000EB22F249E8A002F04DFB204603F09AF9CE
:100C3000022804D0EC22ED49ED4802F043FB2046A7
:100C400003F07FF920B9ED22E849EAA002F03AFB6F
:100C500004F11400FFF7A7FF204603F0D8F80020A6
:100C600010BD2DE9F04106460D46174600BF11F0B4
:100C70007BFF804601F05AFE48B1EA49EAA002F043
:100C80003FFA40F20912E749F1A002F01BFB40468F
:100C900011F06EFF00BFB5F5803F05D34FF48572AC
:100CA000E049CDA002F00EFB3146022003F0CEF861
:100CB000044614B92046BDE8F081204601F0DEFD6F
:100CC000A58367722046F6E770B5044600BF11F0B1
:100CD0004BFF054601F02AFE48B1DE49D2A002F0E2
:100CE0000FFA40F22912DB49D9A002F0EBFA2846AC
:100CF00011F03EFF00BF2CB94FF49672D549B2A057
:100D000002F0E0FA204603F02DF9022805D040F267
:100D10002D12D049B64802F0D5FA204603F011F959
:100D200028B14FF49772CB49CBA002F0CBFA04F173
:100D30001400FFF738FF204603F0D7F8002070BDFD
:100D40002DE9F34105462DB94FF4A572D1499EA076
:100D500002F0B8FA284603F005F9022805D040F25F
:100D60004B12CC49A24802F0ADFA00BFCA48006855
:100D700018B12846C8490968884700BF11F0F4FE39
:100D8000064600BF00BFA88B002806DDA88B401ECA
:100D9000A883304611F0ECFE57E0019830B9304698
:100DA00011F0E6FE6FF00100BDE8FC8100BF11F01C
:100DB000DBFE074603F085FB48B9B649B7A002F051
:100DC0009FF940F26B12B349A1A002F07BFA00BF79
:100DD00011F0CAFE804601F0A9FD48B1AD4992A0CC
:100DE00002F08EF940F26B12AA4999A002F06AFA59
:100DF000404611F0BDFE00BF384611F0B9FE00BFFD
:100E000003F05FFB04460020206300BF00BF6A7A46
:100E1000214605F11400FFF790FE019800280BDD34
:100E200000BF00BF01AA002104F14C0004F034F916
:100E300004F14C0004F060F8304611F099FE03F024
:100E400013FA206B08B1206BAEE700BFA148006821
:100E500018B128469F490968884700BF0020A3E7CA
:100E600010B5044600212046FFF76AFF10BD70B59B
:100E700004462CB940F2B712974953A002F022FA67
:100E8000204603F06FF8022805D04FF4DC72924937
:100E9000574802F017FA00BF9048006818B1204682
:100EA0008E490968884700BF002511F05DFE06469F
:100EB00000BF00BF04F1140001F0D8FC28B904F110
:100EC000140001F0E3FC012502E0A08B401CA0838C
:100ED000304611F04DFE012D01D103F0C5F900207F
:100EE00070BD2DE9F04104460E4615462CB94FF46D
:100EF000F4727B4934A002F0E5F9204603F032F8A1
:100F0000022805D040F2E9127549394802F0DAF9B1
:100F1000012E10D12F4611F027FE804604F1140057
:100F2000FFF741FEA783404611F022FE03F09CF933
:100F30000020BDE8F0814FF0FF30FAE770B50446BD
:100F40000D4616462CB940F21522664966A002F0FD
:100F5000B9F92A460321204602F013FF204601F08A
:100F60008DFC0120A08300202062FF20A0770020BC
:100F7000E077667270BD10B504462CB940F2352298
:100F80005E4959A002F09EF9204602F0EBFF0328CB
:100F900005D040F236225949594802F093F92046CB
:100FA00002F0CFFF28B940F23722544955A002F091
:100FB00089F904F11400FFF7F6FD204602F027FF3F
:100FC000002010BD794C020873656D20213D205230
:100FD000545F4E554C4C000076616C7565203C208A
:100FE000307831303030305500000000854C020838
:100FF0007868020872745F6F626A6563745F697310
:101000005F73797374656D6F626A656374282673A4
:10101000656D2D3E706172656E742E706172656EC5
:1010200074290000934C020846756E6374696F6EF4
:101030005B25735D207368616C6C206E6F74206239
:1010400065207573656420696E204953520A00005B
:1010500030000000A14C020872745F6F626A656321
:10106000745F69735F73797374656D6F626A6563CA
:1010700074282673656D2D3E706172656E742E70D6
:101080006172656E7429203D3D2052545F46414C8B
:1010900053450000AF4C0208D400002046756E6333
:1010A00074696F6E5B25735D207368616C6C206E74
:1010B0006F742062652075736564206265666F7267
:1010C00065207363686564756C6572207374617202
:1010D000740A0000D8000020BB4C0208DC0000208D
:1010E000CA4C0208D94C02086D7574657820213D00
:1010F0002052545F4E554C4C00000000E74C020853
:101100004C69020872745F6F626A6563745F697329
:101110005F73797374656D6F626A65637428266D99
:10112000757465782D3E706172656E742E70617293
:10113000656E7429000000002DE9F04105460E4659
:1011400000BF11F011FD074601F0F0FB58B1F64960
:10115000AFF22C1001F0D4FF40F25222F249AFF26C
:10116000101002F0AFF8384611F002FD00BF29461A
:10117000032002F06BFE044614B92046BDE8F0815E
:10118000204601F07BFB0120A08300202062FF208D
:10119000A0770020E07766722046EFE770B504463E
:1011A00000BF11F0E1FC054601F0C0FB58B1DF497A
:1011B000AFF28C1001F0A4FF40F27322DB49AFF2D2
:1011C000701002F07FF8284611F0D2FC00BF34B94D
:1011D00040F27622D549AFF2F00002F073F82046D3
:1011E00002F0C0FE032805D040F27722CF49D04854
:1011F00002F068F8204602F0A4FE28B14FF41E72F7
:10120000CA49CCA002F05EF804F11400FFF7CBFC51
:10121000204602F06AFE002070BD2DE9F34104462D
:1012200000BF11F0A1FC074603F04BF958B9D149B2
:10123000AFF2981001F064FF4FF42572CD49AFF280
:10124000F01002F03FF800BF11F08EFC804601F074
:101250006DFB58B1C749AFF2302001F051FF4FF498
:101260002572C449AFF2182002F02CF8404611F064
:101270007FFC00BF384611F07BFC00BF34B940F260
:101280009722BC49AFF2A01002F01CF8204602F0F1
:1012900069FE032805D04FF42672B649A44802F02F
:1012A00011F803F00EF9054611F05EFC064600BF8A
:1012B000B148006818B12046AF490968884700BFA7
:1012C00000BF00BF00202863206AA84203D1E07F4E
:1012D000401CE0774EE000BFA08B00280ADDA08B09
:1012E000401EA083256295F83500A077E07F401C62
:1012F000E0773FE0019848B96FF00100286330467D
:1013000011F036FC6FF00100BDE8FC8100BF00BFAA
:1013100095F83500216A91F83510884205DA05F113
:1013200035020221206A03F050FC627A294604F15A
:101330001400FFF702FC019800280BDD00BF00BF7E
:1013400001AA002105F14C0003F0A6FE05F14C00B6
:1013500003F0D2FD304611F00BFC02F085FF286B44
:1013600028B1286B093000B9B6E7286BCCE711F03B
:10137000FBFB0646304611F0FBFB00BF7F480068D0
:1013800018B120467D490968884700BF0020BBE7A7
:101390002DE9F047044634B940F21D327849AFF2E6
:1013A000B82001F08FFF204602F0DCFD032805D0B5
:1013B00040F21E3272495E4801F084FF002600BFF1
:1013C00011F0D2FB804603F07CF858B96C49AFF2BB
:1013D000343001F095FE40F223326949AFF290308B
:1013E00001F070FF00BF11F0BFFB814601F09EFAD3
:1013F00058B16349AFF2D03001F082FE40F223329F
:101400005F49AFF2B43001F05DFF484611F0B0FB28
:1014100000BF404611F0ACFB00BF03F052F8054698
:1014200011F0A2FB074600BF00BF00BF554800688F
:1014300018B1204653490968884700BF206AA8426E
:1014400009D04FF0FF302863384611F091FB4FF080
:10145000FF30BDE8F087E07F401EE077E07F08BB0B
:10146000A07F216A91F83510884205D004F11E0250
:101470000221206A03F0A9FB04F1140001F0F6F93F
:1014800088B96069A0F1140500BF00BF256295F816
:101490003500A077E07F401CE07704F1140001F0F4
:1014A000F5F9012606E0A08B401CA08300202062F5
:1014B000FF20A077384611F05BFB012E01D102F02E
:1014C000D3FE0020C5E770B504460D46164634B974
:1014D0004FF460722C49AFF2F03001F0F3FE204679
:1014E00002F040FD032805D040F281322649104821
:1014F00001F0E8FE4FF0FF3070BD70B504460D46B8
:1015000016462CB940F29632204921A001F0DAFEAD
:101510002A460421204602F034FC6672204601F07F
:10152000ADF90020E06170BDF74C0208074D0208DC
:101530004C69020872745F6F626A6563745F6973F5
:101540005F73797374656D6F626A65637428266D65
:10155000757465782D3E706172656E742E7061725F
:10156000656E7429203D3D2052545F46414C5345E1
:1015700000000000174D0208D4000020D800002011
:10158000254D0208DC000020364D0208474D0208B8
:101590006576656E7420213D2052545F4E554C4C4B
:1015A0000000000010B5044634B940F2B232FB49E5
:1015B000AFF2240001F086FE204602F0D3FC04289E
:1015C00005D040F2B332F549F54801F07BFE2046E4
:1015D00002F0B7FC28B94FF46D72F049F1A001F0A8
:1015E00071FE04F11400FFF7DEFA204602F00FFC52
:1015F000002010BD2DE9F04105460E4600BF11F058
:10160000B3FA074601F092F958B1F349AFF2E85046
:1016100001F076FD40F2CD32EF49AFF2CC5001F04F
:1016200051FE384611F0A4FA00BF2946042002F00A
:101630000DFC044614B92046BDE8F08166722046D0
:1016400001F01CF90020E0612046F5E770B5044682
:1016500034B940F2EB32E149AFF2CC0001F032FE96
:10166000204602F07FFC042805D04FF47B72DB4952
:10167000CB4801F027FE204602F063FC28B140F27F
:10168000ED32D649D6A001F01DFE00BF11F06CFA74
:10169000054601F04BF958B1D049AFF2746001F042
:1016A0002FFD40F2EF32CD49AFF25C6001F00AFE4F
:1016B000284611F05DFA00BF04F11400FFF773FA39
:1016C000204602F012FC002070BD2DE9F0470446D0
:1016D0000F4634B940F20E42D149AFF24C1001F03E
:1016E000F1FD204602F03EFC042805D040F20F42F6
:1016F000CB49AB4801F0E6FD1FB94FF0FF30BDE824
:10170000F0874FF0000811F02FFA8246E069384365
:10171000E06100BFC348006818B12046C1490968AC
:10172000884700BF04F1140001F0A0F8C0BB66694F
:1017300032E0A6F114054FF0FF3995F8400000F0B3
:10174000010040B1E86BE1690840E96B884211D1C2
:101750004FF000090EE095F8400000F0020048B19B
:10176000E86BE169084028B1E86BE1690840E8638B
:101770004FF000093668B9F1000F0DD195F840001F
:1017800000F0040018B1E069E96B8843E061284685
:1017900002F064FF4FF0010804F114008642C8D142
:1017A000504611F0E5F9B8F1010F01D102F05CFDEE
:1017B0000020A4E72DE9FF4F81B005460E461746ED
:1017C000DDF8388000BF11F0CFF9009002F079FE0B
:1017D00058B99549AFF23C7001F092FC40F2714269
:1017E0009149AFF2947001F06DFD00BF11F0BCF9AA
:1017F000834601F09BF858B18B49AFF2D47001F0E9
:101800007FFC40F271428849AFF2BC7001F05AFD92
:10181000584611F0ADF900BF009811F0A9F900BFCA
:1018200035B940F274428049AFF29C2001F04AFD84
:10183000284602F097FB042805D040F275427A4909
:10184000574801F03FFD26B94FF0FF3005B0BDE825
:10185000F08F4FF0FF3902F034FE0446002121637F
:1018600000BF7248006818B1284670490968884767
:1018700000BF11F079F9824607F0010030B1E86944
:101880003040B04212D14FF000090FE007F00200E3
:1018900028B1E869304048B14FF0000906E040F255
:1018A00094426149AFF6580001F00CFDB9F1000F08
:1018B0000DD1B8F1000F03D0E8693040C8F800003E
:1018C00007F0040088B3E869B043E8612DE00498AC
:1018D00018B96FF00100206327E0E66384F84070D8
:1018E0006A7A214605F11400FFF727F904980028C9
:1018F00009DD04AA002104F14C0003F0CDFB04F142
:101900004C0003F0F9FA504611F032F902F0ACFC49
:10191000206B08B1206B99E711F026F98246B8F1E7
:10192000000F02D0E06BC8F80000504611F020F91B
:1019300000BF3F48006818B128463D4909688847FC
:1019400000BF206B82E72DE9F04104460D461746A3
:1019500034B940F2E6423749AFF2CC3001F0B2FC84
:10196000204602F0FFFA042805D040F2E742314950
:101970000B4801F0A7FC012D5ED111F0F5F80646E9
:1019800004F11400FFF70FF90020E061304611F078
:10199000EFF802F069FC0020BDE8F081554D020827
:1019A0000869020872745F6F626A6563745F6973C5
:1019B0005F73797374656D6F626A656374282665F9
:1019C00076656E742D3E706172656E742E706172F4
:1019D000656E742900000000654D0208754D02080F
:1019E00072745F6F626A6563745F69735F73797342
:1019F00074656D6F626A65637428266576656E74BA
:101A00002D3E706172656E742E706172656E742900
:101A1000203D3D2052545F46414C5345000000009C
:101A2000854D0208DC000020934D0208D400002000
:101A3000D8000020A14D02084FF0FF30BDE8F08132
:101A40002DE9F04104460D4616461F46DDF8188084
:101A50002CB940F21452FE49FEA001F033FC2A4694
:101A60000521204602F08DF984F80980204600F017
:101A700005FFE661278400206084A084E08404F1EF
:101A8000280000F0F0FE0020BDE8F08110B504460B
:101A90002CB940F23752F349EEA001F013FC204676
:101AA00002F060FA052805D04FF4A762ED49EE4830
:101AB00001F008FC204602F044FA28B940F23952FD
:101AC000E849EAA001F0FEFB04F11400FFF76BF80F
:101AD00004F12800FFF767F8204602F098F900208B
:101AE00010BD2DE9F04105460E46174600BF11F026
:101AF0003BF8804600F01AFF58B1E849AFF6D8200D
:101B000001F0FEFA40F25552E449AFF6BC2001F074
:101B1000D9FB404611F02CF800BF2946052002F001
:101B200095F9044614B92046BDE8F0816772204655
:101B300000F0A4FE2684218C880001F005FDE06100
:101B4000E06920B9204602F0D0F90020ECE700203F
:101B50006084A084E08404F1280000F084FE204624
:101B6000E2E770B5044600BF10F0FEFF054600F046
:101B7000DDFE58B1CA49AFF6503001F0C1FA4FF45A
:101B8000B062C749AFF6383001F09CFB284610F030
:101B9000EFFF00BF2CB940F28352C149ADA001F064
:101BA00091FB204602F0DEF9052805D040F2845270
:101BB000BB49AD4801F086FB204602F0C2F928B1CE
:101BC00040F28552B649B7A001F07CFB04F1140045
:101BD000FEF7E9FF04F12800FEF7E5FFE06901F0F8
:101BE000B8FD204602F081F9002070BD2DE9F74FC5
:101BF00004460F462CB940F2AB52B94995A001F00A
:101C000061FB204602F0AEF9052805D040F2AC5247
:101C1000B349954801F056FB002602F052FC0546F8
:101C200000BFB048006818B12046AE49096888472F
:101C300000BF10F099FF8046608C218C884208D14B
:101C4000029830B9404610F093FF6FF00200BDE8F3
:101C5000FE8F69E000202863029828B9404610F002
:101C600087FF6FF00200F2E700BF10F07DFF8146B2
:101C700002F027FC58B99A49AFF6E03001F040FA7B
:101C800040F2CF529649AFF6384001F01BFB00BF3F
:101C900010F06AFF824600F049FE58B19049AFF655
:101CA000784001F02DFA40F2CF528D49AFF66040F6
:101CB00001F008FB504610F05BFF00BF484610F0F3
:101CC00057FF00BF627A294604F12800FEF735FF6E
:101CD000029800280EDDFEF7E4FA064600BF00BFBA
:101CE00002AA002105F14C0003F0D6F905F14C00E1
:101CF00003F002F9404610F03BFF02F0B5FA286B02
:101D000008B1286BA3E710F02FFF80460298002847
:101D10000ADDFEF7C6FA861B0298801B0290029825
:101D2000002801DA00200290608C218C884291D03A
:101D3000A18CE06940F82170A08C401CA084A08C8C
:101D4000218C884201DB0020A084608C401C6084D0
:101D500004F1140000F08AFD50B904F1140000F001
:101D600095FD404610F004FF02F07EFA00206EE779
:101D7000404610F0FDFE002069E770B504460D46B0
:101D8000002229462046FFF731FF70BD2DE9F74FAD
:101D900004460F462CB940F23D6253492DA001F094
:101DA00091FA204602F0DEF8052805D040F23E62A6
:101DB0004D492D4801F086FA002602F082FB0546C7
:101DC00000BF4A48006818B120464849096888475A
:101DD00000BF10F0C9FE8046608C40B9029830B94F
:101DE000404610F0C5FE6FF00100BDE8FE8FBDE07B
:101DF00000202863029830B9404610F0B9FE6FF019
:101E000001002863F1E700BF10F0AEFE814602F04A
:101E100058FB58B93449AFF67C5001F071F940F2E3
:101E200063623149AFF6D85001F04CFA00BF10F0B0
:101E30009BFE824600F07AFD40B12B49AFF6186058
:101E400001F05EF940F26362274951E054E000007E
:101E5000B24D02086D6220213D2052545F4E554C18
:101E60004C000000BD4D02089069020872745F6F5B
:101E7000626A6563745F69735F73797374656D6FAC
:101E8000626A65637428266D622D3E706172656EAC
:101E9000742E706172656E7429000000CA4D0208CC
:101EA000D74D020872745F6F626A6563745F69730D
:101EB0005F73797374656D6F626A65637428266DEC
:101EC000622D3E706172656E742E706172656E7403
:101ED00029203D3D2052545F46414C5345000000AF
:101EE000E44D0208DC000020F44D0208D40000207C
:101EF000AFF6A46001F0E6F9504610F039FE00BFDD
:101F0000484610F035FE00BF627A294604F11400FD
:101F1000FEF713FE029800280EDDFEF7C2F9064612
:101F200000BF00BF02AA002105F14C0003F0B4F885
:101F300005F14C0002F0E0FF404610F019FE02F0FF
:101F400093F9286B08B1286B4FE710F00DFE80461F
:101F5000029800280ADDFEF7A4F9861B0298801B70
:101F600002900298002801DA00200290608C00287C
:101F70003FF43EAFE18CE06950F821003860E08C1E
:101F8000401CE084E08C218C884201DB0020E0844E
:101F9000608C401E608404F1280000F067FC98B952
:101FA00004F1280000F072FC404610F0E1FD00BF93
:101FB000FB48006818B12046F9490968884700BF06
:101FC00002F052F9002010E7404610F0D1FD00BFAA
:101FD000F348006818B12046F1490968884700BFF6
:101FE000002002E72DE9F04104460D46174634B9BA
:101FF00040F2C362EB49AFF2A41001F063F920464E
:1020000001F0B0FF052805D040F2C462E549E6487A
:1020100001F058F9012D16D110F0A6FD064604F185
:102020001400FEF7C0FD04F12800FEF7BCFD0020FF
:102030006084A084E084304610F09AFD02F014F928
:102040000020BDE8F0814FF0FF30FAE72DE9F05FA6
:1020500004460F4690469946DDE90AAB2CB94FF489
:10206000E062D249D2A001F02DF93A46062120467D
:1020700001F087FE84F809B0204600F0FFFBC4F8A9
:102080001C8009F1030020F003002084208C001D37
:10209000BAFBF0F060840020A062E06220630025BB
:1020A00008E0208C001DE16905FB0016206B306004
:1020B00026636D1C608CA842F3DC0020A08404F130
:1020C000340000F0D0FB0020BDE8F09F10B50446BE
:1020D0002CB940F23472BA49B5A001F0F3F82046A9
:1020E00001F040FF062805D040F23572B449B548EA
:1020F00001F0E8F8204601F024FF28B940F23672DA
:10210000AF49B1A001F0DEF804F11400FEF74BFD79
:1021100004F13400FEF747FD204601F078FE002070
:1021200010BD2DE9F05F0746884691469A4600BFEC
:1021300010F01AFD834600F0F9FB48B1AE49AF48F4
:1021400000F0DEFF4FF4EB62AB49ADA001F0BAF84E
:10215000584610F00DFD00BF3946062001F076FE0E
:10216000044614B92046BDE8F09F84F809A0204633
:1021700000F084FB08F1030020F003002084A4F8A1
:102180002290218C091D628C01FB02F001F0DCF928
:10219000E061E06920B9204601F0A7FE0020E2E7F7
:1021A0000020A062E0622063002508E0208C001D72
:1021B000E16905FB0016206B306026636D1C608CA6
:1021C000A842F3DC0020A08404F1340000F04BFBB3
:1021D0002046C8E770B5044600BF10F0C5FC0546B0
:1021E00000F0A4FB48B18749844800F089FF40F221
:1021F0009572844982A001F065F8284610F0B8FC79
:1022000000BF2CB94FF4F3627E4969A001F05AF87F
:10221000204601F0A7FE062805D040F299727949C0
:10222000684801F04FF8204601F08BFE28B140F2DB
:102230009A72744974A001F045F804F11400FEF795
:10224000B2FC04F13400FEF7AEFCE06901F081FA63
:10225000204601F04AFE002070BD2DE9FF4F81B0FD
:102260000446894617462CB940F2C272754950A0FF
:1022700001F028F8204601F075FE062805D040F24E
:10228000C37270494F4801F01DF8B9F1000F05D134
:1022900040F2C4726B496CA001F014F82FB940F2FF
:1022A000C57268496DA001F00DF8208CB84204D2C7
:1022B0004FF0FF3005B0BDE8F08F4FF0000802F09E
:1022C00000F9064600BF6848006818B12046664914
:1022D0000968884700BF10F047FC8246256B3DB96E
:1022E000049828B9504610F043FC6FF00200E1E773
:1022F000CFE000203063049828B9504610F038FC35
:102300006FF00200D6E700BF10F02EFC009002F044
:10231000D8F850B94B493948743000F0F1FE40F21A
:10232000EF72484936A000F0CDFF00BF10F01CFC52
:10233000834600F0FBFA48B14249304800F0E0FE25
:1023400040F2EF723F492EA000F0BCFF584610F05B
:102350000FFC00BF009810F00BFC00BF627A314602
:1023600004F13400FEF7E9FB049800280EDDFDF7C8
:1023700098FF804600BF00BF04AA002106F14C0070
:1023800002F08AFE06F14C0002F0B6FD504610F055
:10239000EFFB01F069FF306B08B1306B8AE765E055
:1023A000D8000020FF4D0208906902080D4E020877
:1023B0006D7120213D2052545F4E554C4C00000061
:1023C000184E0208C068020872745F6F626A656323
:1023D000745F69735F73797374656D6F626A656347
:1023E0007428266D712D3E706172656E742E706159
:1023F00072656E7429000000254E0208281000083E
:1024000030000000324E020872745F6F626A6563CA
:10241000745F69735F73797374656D6F626A656306
:102420007428266D712D3E706172656E742E706118
:1024300072656E7429203D3D2052545F46414C53D5
:10244000450000003F4E02086275666665722021F5
:102450003D2052545F4E554C4C00000073697A6524
:1024600020213D2030000000DC00002010F07CFB2B
:102470008246049800280CDDFDF713FFA0EB080846
:102480000498A0EB080004900498002801DA0020CA
:102490000490206B051E3FF42CAF28682063504643
:1024A00010F066FB002028603A464946281D00F0DF
:1024B000A4FA10F059FB8246E06A08B1E06A0560B0
:1024C000E562A06A00B9A562A08C401CA08404F15A
:1024D000140000F0CBF950B904F1140000F0D6F963
:1024E000504610F045FB01F0BFFE0020E2E65046EA
:1024F00010F03EFB0020DDE670B504460D461646A2
:102500000023324629462046FFF7A7FE70BD2DE97D
:10251000F04104460F46164634B940F67102E149CF
:10252000AFF2741000F0CEFE204601F01BFD06282D
:1025300005D040F67202DB49DB4800F0C3FE37B934
:1025400040F67302D749AFF2001000F0BBFE36B977
:1025500040F67402D349AFF2FC0000F0B3FE208CC9
:10256000B04203D24FF0FF30BDE8F08100BFCF484A
:10257000006818B12046CD490968884700BF10F0AF
:10258000F3FA8046256B2DB9404610F0F1FA6FF052
:102590000200E9E728682063404610F0E9FA324675
:1025A0003946281D00F029FA10F0DEFA8046A06AAC
:1025B0002860A562E06A00B9E562A08C401CA08496
:1025C00004F1140000F052F950B904F1140000F0C5
:1025D0005DF9404610F0CCFA01F046FE0020C3E75A
:1025E000404610F0C5FA0020BEE72DE9FF4F81B04C
:1025F00004460F46904634B940F6CB02AC49AFF2E0
:10260000502000F05FFE204601F0ACFC062805D00B
:1026100040F6CC02A649A44800F054FE37B940F673
:10262000CD02A349AFF2E01000F04CFEB8F1000F6C
:1026300006D140F6CE029E49AFF2E01000F042FE15
:102640004FF0000901F03DFF054600BF99480068C2
:1026500018B1204697490968884700BF10F084FAEE
:102660008246A08C48B9049838B9504610F080FAD8
:102670006FF0010005B0BDE8F08F6BE000BF10F017
:1026800073FA009001F01DFF50B989498A4800F0A3
:1026900037FD40F6E4028649AFF29C2000F012FEBE
:1026A00000BF10F061FA834600F040F958B180494C
:1026B0008148743800F024FD40F6E4027C49AFF212
:1026C000C02000F0FFFD584610F052FA00BF0098FD
:1026D00010F04EFA00BF00202863049830B950462D
:1026E00010F046FA6FF001002863C3E7627A2946CA
:1026F00004F11400FEF721FA049800280EDDFDF71E
:10270000D0FD814600BF00BF04AA002105F14C00A6
:1027100002F0C2FC05F14C0002F0EEFB504610F056
:1027200027FA01F0A1FD286B08B1286BA2E710F091
:102730001BFA8246049800280CDDFDF7B2FDA0EBE1
:1027400009090498A0EB090004900498002801DA14
:1027500000200490A08C002890D0A66A3068A06267
:10276000E06AB04201D10020E062A08C401EA0844B
:10277000504610F0FDF9208C404501D2208C00E03D
:1027800040460246311D384600F037F910F0ECF9AA
:102790008246206B3060266304F1340000F066F856
:1027A00098B904F1340000F071F8504610F0E0F9E7
:1027B00000BF4248006818B1204640490968884770
:1027C00000BF01F051FD002054E7504610F0D0F951
:1027D00000BF3A48006818B1204638490968884760
:1027E00000BF002046E72DE9F04104460E46904622
:1027F00034B940F663123249AFF24C4000F062FD4A
:10280000204601F0AFFB062805D040F664122C49A3
:10281000254800F057FD012E22D110F0A5F90746FA
:1028200004F11400FEF7BFF904F13400FEF7BBF920
:102830000AE0A56A2868A062E06AA84201D10020E7
:10284000E062206B28602563A06A0028F1D1A08493
:10285000384610F08DF901F007FD0020BDE8F08149
:102860004FF0FF30FAE740600060704701460868AB
:10287000884201D1012070470020FCE710B50446D2
:1028800004F11400FFF7EFFF002010BD70B50446FF
:102890002068A0F1140500BF00BF284601F0DEFE4D
:1028A000002070BD4F4E0208C0680208DC00002006
:1028B0005C4E0208D40000209C100008D8000020C4
:1028C000674E02081F49086070471F49086070473B
:1028D00010B500BF00BF10F047F904461B48007850
:1028E000401C1A49087000BF1648006810B115480E
:1028F0000068804700BF204610F03AF910BD10B5BF
:1029000000BF00BF10F030F9044610480078401EA8
:102910000E49087000BF0C48006810B10A480068F2
:10292000804700BF204610F023F910BD70B510F0AD
:102930001BF9054605480478284610F019F9204689
:1029400070BD000004000020080000200C000020E2
:1029500010B5FFF7EBFF10B1FB48006810BD01F0A8
:10296000B0FD044614B9F8480068F7E7206BF5E7B6
:1029700070B50446FFF7DAFF10B1F348046070BD8C
:1029800001F09FFD054615B9EF480460F7E72C6399
:1029900000BFF4E710B5FFF7C9FF08B1EA4810BD62
:1029A00001F08FFD044614B104F13000F7E7E6486A
:1029B000F5E7F0B50C460546E6B2042A15D300F05B
:1029C000030797B9014646EA062343EA034304E0B6
:1029D00008C108C108C108C1103A102AF8D201E0A4
:1029E00008C1121F042AFBD20D4601E005F8016B55
:1029F000171EA2F10102F9D1F0BD2DE9F0410F46F9
:102A0000164604463D463346102B28D305F0030CEA
:102A100004F003084CEA080CBCF1000F1FD121465A
:102A20002A4610E052F804CB41F804CB52F804CB0C
:102A300041F804CB52F804CB41F804CB52F804CB54
:102A400041F804CB103B102BECD204E052F804CB3D
:102A500041F804CB1B1F042BF8D20C46154603E0AB
:102A600015F801CB04F801CBB3F1000CA3F101037D
:102A7000F6D1BDE8F08170B50C46014623468B4285
:102A800010D29D188D420DD91144134405E05D1EEE
:102A90002B462E784D1E29462E70151EA2F10102DE
:102AA000F5D108E003E013F8015B01F8015B151EA6
:102AB000A2F10102F7D170BDF0B5034600201C461B
:102AC0000D4608E026782F78F61B301E00D004E073
:102AD000641C6D1C521E002AF4D800BFF0BD0146D4
:102AE0000A4600E0521C10780028FBD1501A7047AB
:102AF000F0B506460F463846FFF7F1FF05460DB91B
:102B00003046F0BD3046FFF7EAFF044609E0641E98
:102B10002A4639463046FFF7CFFF08B93046F0E77E
:102B2000761CAC42F3DA0020EBE730B503460C46E6
:102B300000BF13F8011B14F8012B412902DB5A29AD
:102B400000DC2031412A02DB5A2A00DC203291428B
:102B500001D10029EDD1881A30BD70B50346A2B16C
:102B600018460C4600BF14F8016B00F8016B3EB923
:102B700002E0002500F8015B551E2A1EF9D102E093
:102B8000551E2A1EEFD100BF00BF184670BD30B5DC
:102B9000034600200BE011F8015B1C78641B64B253
:102BA000201E02D113F8015B05B902E0521E002A73
:102BB000F1D100BF30BD024601E0521C491C107823
:102BC00018B110780B789842F7D010780B78C01AAB
:102BD000704702460B46114600E0491C087810B1C8
:102BE000881A9842F9D3881A704770B5044620466F
:102BF000FFF775FF451C284600F0A6FC06460EB9F7
:102C0000002070BD2A4621463046FFF7F6FE3046CA
:102C1000F7E770472DE9F04F86B00D469C46DDE999
:102C2000106401960F9B04F04008B8F1000F02D029
:102C3000DFF8188101E0DFF81881CDF8008004F09A
:102C40001008B8F1000F01D024F0010404F00108CD
:102C5000B8F1000F02D04FF0300801E04FF020082B
:102C6000C246002704F00208B8F1000F11D0002A74
:102C700002DA2D2752420CE004F00408B8F1000FEC
:102C800001D02B2705E004F00808B8F1000F00D0B0
:102C90002027002142B94FF0300B8846491C0DF126
:102CA000080909F808B01DE01AE0E146B9F10A0F79
:102CB00008D14FF00A0BB2FBFBFE0BFB1E28B2FB48
:102CC000FBF202E002F00F08120900BFDDF80090ED
:102CD00019F808B08846491C0DF1080909F808B030
:102CE000002AE2D1B14200DD0E469B1B04F0110820
:102CF000B8F1000F10D117B1002B00DD5B1E06E00C
:102D0000A84203D24FF0200880F80080401CB3F1A5
:102D10000008A3F10103F3DC27B1A84200D2077039
:102D20005B1E401C04F01008B8F1000F0AD104E04B
:102D3000A84201D280F800A0401CB3F10008A3F122
:102D40000103F5DC0DE0000010000020864E0208B3
:102D5000754E0208A84203D24FF0300880F8008078
:102D6000401CB046761E8845F4DC08E0A84205D237
:102D70000DF1080818F8018080F80080401CB1F1BE
:102D80000008A1F1010104DDDDF80480B8F1000FB5
:102D9000ECD106E0A84203D24FF0200880F8008072
:102DA000401CB3F10008A3F10103F3DC06B0BDE859
:102DB000F08F0146002009E00B685A1C0A601A785F
:102DC00000EB800302EB4302A2F130000A681278A4
:102DD000303A0A2AF0D370472DE9FF4F89B0804678
:102DE00044460A9808EB0006464504D24FF0FF36E9
:102DF000A6EB08000A906FE10B980078252806D012
:102E0000B44202D20B9800782070641C61E1002566
:102E100026E00B98401C0B900B9800782D2802D1CF
:102E200045F010051CE00B9800782B2802D145F0E6
:102E3000040515E00B980078202802D145F008051C
:102E40000EE00B980078232802D145F0200507E01A
:102E50000B980078302802D145F0010500E000E031
:102E6000D7E700BF4FF0FF370B98007830380A28BB
:102E700004D20BA8FFF79DFF07460EE00B980078E1
:102E80002A280AD10B98401C0B900C9880C80C90F3
:102E9000002F02DA7F4245F010054FF0FF390B9802
:102EA00000782E281CD10B98401C0B900B980078B2
:102EB00030380A2804D20BA8FFF77BFF81460AE0CE
:102EC0000B9800782A2806D10B98401C0B900C9880
:102ED00050F8049B0C90B9F1000F01DA4FF0000993
:102EE000002004900B980078682803D00B98007895
:102EF0006C2805D10B98007804900B98401C0B901F
:102F00000A2005900B9800786F2875D00CDC632898
:102F100013D004DC252870D058286FD18DE06428A8
:102F20006DD06928F9D18FE070286AD0732825D038
:102F3000752878D07828F0D182E005F0100040B9EB
:102F400004E0B44201D220202070641C781E071EC9
:102F5000F7DC0C9810F8041B0C90C8B20790B44230
:102F600001D207982070641C04E0B44201D22020F2
:102F70002070641C781E071EF7DCAAE00C9800681D
:102F800006900C98001D0C90069808B9DBA00690DE
:102F90000698FFF7A4FD8346B9F1000F02DDCB458B
:102FA00000DDCB4605F0100048B904E0B44201D280
:102FB00020202070641C38467F1E5845F6DC002017
:102FC00008900BE0B44202D2069800782070641C8E
:102FD0000698401C06900898401C08900898584590
:102FE000F0DB04E0B44201D220202070641C38469B
:102FF0007F1E5845F6DC6CE01CE015E028E022E07E
:10300000FFE7781C10B9082745F00105CDE90079E4
:1030100002950C9804C8102331460C902046FFF707
:10302000F9FD044655E012E0B44201D2252020709B
:10303000641C4EE0082005901DE045F0400500BFEF
:103040001020059017E000BF45F0020500BF12E018
:10305000B44201D225202070641C0B98007830B156
:10306000B44202D20B9800782070641C02E00B98E6
:10307000401E0B902DE000BF04986C2807D10C98DF
:1030800050F804AB0C9005F00200B8B116E00498BB
:1030900068280BD10C9830F8041B1FFA81FA0C90A9
:1030A00005F0020050B10FFA8AFA07E00C9850F8C8
:1030B00004AB0C9005F0020000B100BFCDE900792F
:1030C0000295524631462046059BFFF7A3FD044674
:1030D00000BF0B98401C0B900B98007800287FF4E1
:1030E0008BAE0A9838B1B44202D20020207002E0C0
:1030F000002006F8010CA4EB08000DB0BDE8F08F2D
:103100000FB438B505A800907F217E48009B049A33
:10311000FFF762FE04467F2C00D97F247A480068BE
:1031200018B97848FFF775FD15E077480068058BFA
:1031300075480068008B40F04000734909680883B7
:103140002346704A002170480068FDF7D3FA6E48A4
:103150000068058300BF0020009038BC5DF814FBB8
:1031600008B56AA0FFF7CCFF6BA0FFF7C9FF73A0FB
:10317000032300220421009073A0FFF7C1FF7AA06F
:10318000FFF7BEFF08BD0FB4F8B504460D4609A809
:10319000009029462046009B089AFFF71DFE064630
:1031A000002000903046F8BC5DF814FB37B50546AA
:1031B0000C4622464FF0FF312846029BFFF70CFEDB
:1031C0003EBD0FB438B5044606A800902046009ACC
:1031D0000599FFF7EBFF054600200090284638BC14
:1031E0005DF814FB48480068704770B505464648CE
:1031F00006682846FDF706F9044664B142480068AF
:1032000018B141480068FDF716FA43212046FDF742
:10321000BDF93D480460304670BD70B5044604B940
:1032200070BD3948006818B92046FFF7F2FC19E074
:1032300035480068058B34480068008B40F040003A
:103240003149096808832046FFF749FC06463346A2
:10325000224600212C480068FDF74CFA2A480068F5
:10326000058300BF00BFDBE72DE9F04780460C4631
:103270000426761EA01920EA060408EB0600B043D7
:1032800000EB0409484600F05FF9054665B1601E91
:10329000284008B92F1904E0601E2844611E20EA66
:1032A000010747F8045C3D462846BDE8F08770B545
:1032B000044654F8045C284600F04BFA70BD3549CA
:1032C00008607047F8B504460D4616460020009089
:1032D0003048006858B933462A4621462EA0FFF7E9
:1032E0000FFF00BF9DF800000028FBD005E032462C
:1032F00029462046274B1B689847F8BD284E554C59
:103300004C290000A0070020140000200A205C20A7
:103310007C202F0A000000002D205254202D202058
:10332000202020546872656164204F70657261745A
:10333000696E672053797374656D0A004D61722060
:103340002031203230323400202F207C205C20209D
:1033500020202025642E25642E2564206275696C4A
:10336000642025730A0000002032303036202D20E2
:103370003230323020436F7079726967687420622E
:10338000792072742D746872656164207465616D52
:103390000A0000001800002028257329206173739B
:1033A000657274696F6E206661696C656420617412
:1033B0002066756E6374696F6E3A25732C206C6994
:1033C0006E65206E756D6265723A2564200A000094
:1033D000F04908607047F0490860704770B50446CE
:1033E000EE480068844204D2A122ED49EDA0FFF727
:1033F00069FFF4480068844204D3A222E849F2A09D
:10340000FFF760FF608820B1A322E549F9A0FFF72C
:1034100059FFE249606809684518AC4215D06888D0
:1034200098B9E848006885420FD0F6480068A8427D
:1034300001D1F448046068686060D8480068201AC8
:10344000D64A6968126811448860D449A06809683E
:103450004618A64211D0708878B9EA480068A042A0
:1034600001D1E848066060687060CC480068301A96
:10347000CA4A616812681144886070BD2DE9F0473E
:1034800005460E46E81C20F0030726F0030800BF9F
:103490000FF06AFB8146FFF749FA40B1DA49DBA039
:1034A000FFF72EFED222D849E2A0FFF70BFF4846D5
:1034B0000FF05EFB00BFB8F1180F09D9A8F1180092
:1034C000B84205D3A8EB07001838DB49086006E0CE
:1034D00032462946D9A0FFF713FEBDE8F087AF4872
:1034E000076000BF00BF04684FF4F5502080D24849
:1034F00000680C3060600020A0606080A7496068B0
:1035000009680844AF4908604FF4F550096808801D
:103510000120AC4909684880C74800680C30A949B7
:1035200009684860C44800680C30A649096888608A
:1035300000230122D0A1D248FDF74EFB9748006836
:10354000B049086000BFC8E72DE9F047054615B946
:103550000020BDE8F08700BF0FF006FB8146FFF7B3
:10356000E5F948B1C749A9A0FFF7CAFD4FF48C722D
:10357000C449B0A0FFF7A6FE48460FF0F9FA00BF15
:10358000E81C20F00300A84201D000BF01E000BF0A
:1035900000BFE81C20F00305A7480068854203D956
:1035A00000BF00BF0020D4E70C2D00D20C254FF047
:1035B000FF31B348FDF7C4FB9248006877490968BA
:1035C000461ABBE0754800688419608800287BD1E2
:1035D00006F10C006168081AA84275D306F10C00C8
:1035E0006168091A05F11800814230D306F10C0018
:1035F00000EB05086948006800EB08074FF4F55038
:1036000038800020788060687860BE60C4F80480EC
:10361000012060808848796800680C30814205D0BC
:103620005E49786809680844C0F8088096480168CF
:1036300005F10C0008449449086094480068096842
:10364000884219D2904800689049086014E001202F
:103650006080524960680968611A401A8A4909689D
:10366000084489490860894800680968884203D28B
:1036700085480068854908604FF4F550208061480E
:103680000068844224D107E05E48006840684349EE
:10369000096808445B4908605A480068408828B1B6
:1036A00058480068474909688842EDD15548006884
:1036B0004449096888420BD052480068408838B1B4
:1036C0004FF4C1726F4900E034E071A0FFF7FAFDDA
:1036D0006B48FDF7CCFB04F10C002844394909681C
:1036E000884205D94FF4C37266497348FFF7EAFD73
:1036F00004F0030028B140F2871262496F48FFF7D7
:10370000E1FD04F0030028B14FF4C4725D496CA0E0
:10371000FFF7D8FD00BF00BF00BF1E48006828B1FA
:10372000294604F10C001B4A1268904700BF04F1BF
:103730000C000EE719480068304446683E480068AF
:10374000401BB0423FF63EAF4D48FDF790FB0020D6
:10375000FFE670B5054605B970BD00BF0FF004FA6D
:103760000646FFF7E3F848B1614928A0FFF7C8FC17
:1037700040F22F225E492FA0FFF7A4FD30460FF044
:10378000F7F900BF05F0030018B140F231225849A3
:10379000B0E0B2E01C000020200000202400002047
:1037A000974E02082872745F75696E74385F7420D2
:1037B0002A296D656D203E3D20686561705F7074DB
:1037C00072000000280000202872745F75696E7412
:1037D000385F74202A296D656D203C202872745F43
:1037E00075696E74385F74202A29686561705F6539
:1037F0006E6400006D656D2D3E75736564203D3D02
:10380000203000002C000020A24E020846756E6396
:1038100074696F6E5B25735D207368616C6C206EDC
:103820006F74206265207573656420696E2049534A
:10383000520A000030000000300000206D656D204D
:10384000696E69742C206572726F72206265676997
:103850006E206164647265737320307825782C2043
:10386000616E6420656E64206164647265737320A8
:10387000307825780A00000068656170000000005B
:1038800020080020B64E0208340000203800002036
:1038900028286C66726565203D3D20686561705F13
:1038A000656E6429207C7C2028216C667265652DFC
:1038B0003E757365642929007C6A0208D469020890
:1038C00028282872745F75626173655F74296D655D
:1038D0006D292026202852545F414C49474E5F53A2
:1038E000495A45202D20312929203D3D2030000016
:1038F000CB4E0208A1A0FFF7E5FCAC48006885426A
:1039000003D3AB480068854205D340F23222A9496F
:10391000A948FFF7D7FC00BFA848006818B128469F
:10392000A6490968884700BFA0480068854203D3BC
:103930009F480068854202D300BF00BF0CE7A5F195
:103940000C0400BF00BF4FF0FF319D48FDF7F8F9B0
:10395000608818B12088B0F5F55F08D099A0FFF70E
:10396000CFFB2388628821469DA0FFF7C9FB6088B2
:1039700028B940F251228F49A5A0FFF7A3FC208867
:10398000B0F5F55F05D040F252228A49A3A0FFF7B7
:1039900099FC002060804FF4F5502080A648006814
:1039A000844201D2A4480460804960680968611AB1
:1039B000401AA2490968081AA04908602046FFF782
:1039C0000DFD7F48FDF753FA00BFC5E62DE9F84F1E
:1039D00006460C4600BF0FF0C7F80090FEF7A6FFA2
:1039E00058B19749AFF2DC10FFF78AFB4FF4D6725B
:1039F0009349AFF2C010FFF765FC00980FF0B8F8DC
:103A000000BFE01C20F003048E480068844204D903
:103A100000BF00BF0020BDE8F88F24B93046FFF793
:103A200098FE0020F7E71EB92046FFF78DFDF2E76C
:103A30004FF0FF316248FDF783F95C480068864229
:103A400003D35B480068864204D35D48FDF70FFA54
:103A50003046E0E7A6F10C0854480068A8EB0009DE
:103A6000D8F80400A0EB0900A0F10C07A74204D18C
:103A70005348FDF7FCF93046CDE704F11800B84291
:103A800033D2381B6D490968081A6C49086009F17E
:103A90000C0000EB040A4548006800EB0A054FF4EF
:103AA000F550288000206880D8F804006860C5F8C8
:103AB0000890C8F804A06348696800680C30814227
:103AC00005D03A49686809680844C0F808A05A480F
:103AD0000068854201D2584805602846FFF77EFC01
:103AE0003748FDF7C4F9304695E73548FDF7BFF98B
:103AF0002046FFF729FD8346BBF1000F0CD0A742FB
:103B000001D2384600E02046024631465846FEF7CC
:103B100074FF3046FFF71DFE58467CE770B504463B
:103B20000D4604FB05F0FFF70FFD06462EB104FB22
:103B300005F200213046FEF73CFF304670BD10B163
:103B4000404B1B68036011B13C4B1B680B6012B10A
:103B50003D4B1B681360704710B53A4801683BA0A5
:103B6000FFF7CEFA354801683DA0FFF7C9FA36489D
:103B7000016840A0FFF7C4FA10BD00002828287291
:103B8000745F75626173655F7429726D656D29205C
:103B900026202852545F414C49474E5F53495A45AD
:103BA000202D20312929203D3D20300024000020F7
:103BB00028000020CB4E0208206A020820000020C6
:103BC00020080020746F20667265652061206261A4
:103BD00064206461746120626C6F636B3A0A000058
:103BE0006D656D3A203078253038782C20757365F6
:103BF0006420666C61673A2025642C206D616769DA
:103C00006320636F64653A203078253034780A0089
:103C10006D656D2D3E757365640000006D656D2DDD
:103C20003E6D61676963203D3D20484541505F4DD1
:103C300041474943000000002C00002034000020D0
:103C4000C04E02083000002038000020746F7461FC
:103C50006C206D656D6F72793A2025640A00000052
:103C600075736564206D656D6F7279203A202564E7
:103C70000A0000006D6178696D756D20616C6C6F74
:103C80006361746564206D656D6F72793A20256497
:103C90000A0000000268516002680A600160486022
:103CA0007047D0E900215160D0E9001211604060F6
:103CB00000607047D14908607047D149086070477B
:103CC000D04908607047D04908607047CF49086004
:103CD00070477047024600210AE0CD4800EB011012
:103CE0000078904203D1CA4800EB01107047491C8C
:103CF0000929F2DB0020F9E72DE9F041074600250C
:103D0000002600243846FFF7E5FF044614B90020DA
:103D1000BDE8F0810EF028FF8046666801E06D1C6A
:103D20003668201D8642FAD140460EF021FF284613
:103D3000EEE72DE9F05F82460F469046002400250D
:103D40000026B8F1000F02DC0020BDE8F09F5046CD
:103D5000FFF7C0FF06460EB90020F6E70EF004FF9D
:103D60008346756805E0A5F10C0947F82490641CAA
:103D70002D68301D8542F6D158460EF0F9FE2046DA
:103D8000E3E72DE9F04704460E469046002730460B
:103D9000FFF7A0FF05462DB94FF4A1729D499EA0E3
:103DA000FFF790FA00F0F6FA6F680DE0A7F10C0942
:103DB000B9F1000F07D0A14505D14FF4A97295497B
:103DC0009BA0FFF77FFA3F68281D8742EED100F0E5
:103DD000EFFA46F080002072082241462046FEF7A6
:103DE000BCFE00BF8548006818B1204683490968B9
:103DF000884700BF0EF0B8FE824604F10C01281D72
:103E0000FFF748FF50460EF0B3FEBDE8F08770B5EF
:103E100004462CB940F27F1289498AA0FFF752FA72
:103E200000BF7748006818B120467549096888477F
:103E300000BF002020720EF097FE054604F10C0032
:103E4000FFF72FFF28460EF093FE70BD2DE9F047D7
:103E500006460F4600BF0EF087FE8146FEF766FD60
:103E600048B17D497DA0FFF74BF94FF4D1727A49F3
:103E700084A0FFF727FA48460EF07AFE00BF3046CE
:103E8000FFF728FF05462DB94FF4D372724962A09F
:103E9000FFF718FAE868FFF757FB044614B900204B
:103EA000BDE8F08700212046EA68FEF782FD267211
:103EB00000206072082239462046FEF74EFE00BF01
:103EC0004E48006818B120464C490968884700BF31
:103ED0000EF04AFE804604F10C01281DFFF7DAFEC1
:103EE00040460EF045FE2046DAE770B504462CB990
:103EF0004FF4F072644953A0FFF7E4F9207A00F020
:103F0000800028B140F2E1125F4960A0FFF7DAF9C2
:103F100000BF3B48006818B1204639490968884706
:103F200000BF002020720EF01FFE054604F10C00B9
:103F3000FFF7B7FE28460EF01BFE2046FFF709FCF0
:103F400070BD10B504462CB940F202225A493DA07A
:103F5000FFF7B8F9207A00F0800008B1012010BD09
:103F60000020FCE710B504462CB940F21522534955
:103F700034A0FFF7A7F9207A20F0800010BD2DE9CA
:103F8000F04704460F464FF000080025002638464B
:103F9000FFF7A0FE064604B116B90020BDE8F08781
:103FA00000BF0EF0E1FD8146FEF7C0FC48B1444978
:103FB0002AA0FFF7A5F840F23222414931A0FFF7CD
:103FC00081F948460EF0D4FD00BF00F0E3F97568B2
:103FD0000CE0A5F10C08082221464046FEF7D7FD6B
:103FE00018B900F0E5F94046D8E72D68301D854244
:103FF000EFD100F0DDF90020D0E70000CC00002078
:10400000D0000020D4000020D8000020DC000020D8
:104010003C000020D34E0208696E666F726D6174B9
:10402000696F6E20213D2052545F4E554C4C00006C
:104030006F626A20213D206F626A65637400000030
:10404000E24E02086F626A65637420213D2052547B
:104050005F4E554C4C000000F34E020846756E63EF
:1040600074696F6E5B25735D207368616C6C206E84
:104070006F74206265207573656420696E204953F2
:10408000520A000030000000064F020821286F622B
:104090006A6563742D3E7479706520262052545FE2
:1040A0004F626A6563745F436C6173735F537461DD
:1040B0007469632900000000174F0208314F02089D
:1040C000444F0208CD490860704770B5044624B9D2
:1040D0005322CB49CBA0FFF7F5F8A06A007823283C
:1040E00009D1A16AE069884205D9D4E90A010844E6
:1040F000E16988420CD22146C7A0FFF701F813F00E
:1041000085FC0EF031FD054600BF002DFDD108E015
:10411000A06A2030E169814203D82146C5A0FEF79C
:10412000EFFF70BD70B50446D0480068FCF7B0F8EA
:10413000451ECF4850F83500A0F1140625603046E2
:1041400070BD10B50020CB49088000BF00BF00241F
:1041500005E0C74901EBC40000F04CF9641C202CB9
:10416000F7DB0020C1490860C34800F043F910BDE7
:1041700070B504462CB940F22932C049A1A0FFF71E
:10418000A1F80EF0F1FC054600BF00BF04F11400D9
:10419000D0E900215160D0E9001211604060006058
:1041A00000BF94F83510B24A02EBC10001688142A9
:1041B00001D1012100E0002129B1AC48A16B0068C8
:1041C0008843AA49086028460EF0D2FC70BD38B575
:1041D0006846FFF7A7FF0446A94804602046FFF79A
:1041E000C7FF032084F8340004F11C000EF009FD21
:1041F00038BD70B504462CB94FF43272A14981A084
:10420000FFF760F80EF0B0FC05469D480068844258
:1042100008D194F8340020F0070040F0030084F83F
:1042200034001DE014F8340F20F0070040F00100C6
:1042300020706278343C8E4B03EBC20004F1140111
:104240004268116042684A604160086000BF00BF78
:1042500000BF8649A06B096808438449086000BF15
:1042600028460EF085FC70BDF8B50EF07DFC0646C4
:1042700080480088002874D17C480068002871D0EC
:1042800000276846FFF74EFF04467D48006890F817
:10429000340000F00700032825D17948006890F821
:1042A00035000099884202D2754804681BE07448C2
:1042B000006890F835000099884209D1704800687C
:1042C00090F8340000F0080010B96D4804680AE066
:1042D0006B48006890F8340020F0080068490968CD
:1042E00081F8340001276648006884423BD0664963
:1042F0000098087062480568046000BF3F48006885
:1043000020B1214628463D4A1268904700BF17B1A8
:104310002846FFF76EFF2046FFF72AFF94F8340087
:1043200020F0070040F0030084F8340000BF00BF15
:104330002046FFF7CAFE5548007848B904F11C0131
:1043400005F11C000EF017FC30460EF011FC20E0C9
:1043500000BF00BF04F11C0105F11C000EF00BFCB6
:1043600011E012E010E046480068FFF701FF444802
:10437000006890F8340020F0070040F00300404946
:10438000096881F8340000BF00BF30460EF0F0FB32
:1043900000BFF8BD10B50EF0E7FB044635480088B5
:1043A000401C00B23349088020460EF0E1FB10BDEE
:1043B00010B50EF0D9FB04462E480088401E00B20E
:1043C0002C4908800846B0F9000000280ADC0020CB
:1043D000088020460EF0CCFB2948006828B1FFF782
:1043E00043FF02E020460EF0C3FB10BD21480088C9
:1043F00080B270474060006070470000F800002005
:10440000534F020874687265616420213D20525444
:104410005F4E554C4C0000007468726561643A252B
:104420007320737461636B206F766572666C6F774F
:104430000A0000007761726E696E673A202573206A
:10444000737461636B20697320636C6F7365207490
:104450006F20656E64206F6620737461636B2061EA
:104460006464726573732E0A00000000E00000208F
:1044700040080020E4000020F0000020874F0208E0
:10448000E80000206D4F0208EC0000200C00002026
:104490000268516002680A60016048607047D0E9B4
:1044A00000215160D0E90012116040600060704747
:1044B000F84908607047F84908607047F749086094
:1044C0007047F7480068704770B5FFF7FAFF044679
:1044D0000EF04AFB05462046FFF74AFE042084F80A
:1044E000340004F14C0000F097FC2046FFF729FD52
:1044F000012805D1A06F18B92046FFF788FC04E019
:1045000004F11401E748FFF7C3FFFFF7ADFE2846AB
:104510000EF02EFB70BD70B505462C462CB940F24E
:104520002E32E149E1A0FEF7CDFE94F8340000F010
:104530000700022805D040F22F32DB49E0A0FEF749
:10454000C1FE2046FFF70EFD012805D04FF44C7246
:10455000D549EA48FEF7B6FE6FF00100206304F18A
:104560001400FFF79CFF2046FFF743FEFFF77CFE99
:1045700070BD2DE9FC5F04468B4616461F46DDE9FB
:104580000C9ADDE90E5804F114004060006000BF91
:1045900026626762C4F82890C4F82CA02321D4E9CD
:1045A0000A02FEF706FAD4E90A3C63441A1FAFF286
:1045B000E703D4E908010DF0D1FFE061202D04DB11
:1045C0009522CF49CFA0FEF77DFE3034A5716571ED
:1045D0000020A060C4F81480C4F818802060207106
:1045E000A064E064303C00902346AFF2D50221463F
:1045F000019004F14C0000F0F2FB00BFA7480068F6
:1046000018B12046A5490968884700BF0020BDE8C9
:10461000FC9F2DE9FF5F04460D46174698460EAEF7
:1046200096E8400E24B9F222BF49A0A0FEF74AFE48
:1046300026B9F322BC49BDA0FEF744FE2A4601215B
:104640002046FFF79EFB43463A46294620468DE822
:10465000400EFFF78EFF04B0BDE8F09F70B5044632
:104660002CB940F20132B74990A0FEF72BFE20464C
:10467000FFF778FC012805D040F20232B1499F488B
:10468000FEF720FE00BF00BF94F8340000F00700E2
:10469000022804D000BF00BF4FF0FF3070BD0EF005
:1046A00063FA054604F11400FFF7F9FE04F14C002B
:1046B00000F0BFFC28460EF05BFA2046FFF799FD9C
:1046C00000BF7548006818B12046734909688847DB
:1046D00000BF0020E2E710B504462CB94FF49272F7
:1046E000994972A0FEF7EEFD94F8340000F007003F
:1046F00028B140F22512944994A0FEF7E3FD20462C
:10470000FFF730FC012805D04FF493728E497B48A7
:10471000FEF7D8FD94F8360084F8350094F835108B
:1047200001208840A06300BF00BF022084F834004D
:104730002046FFF793FFFFF7C4FE08B1FFF794FD93
:10474000002010BD70B504462CB940F251128D49BD
:1047500056A0FEF7B7FD2046FFF704FC012805D060
:104760004FF4A97287496548FEF7ACFD2046FFF774
:10477000E8FB28B940F25312824983A0FEF7A2FD5C
:1047800094F8340000F0070010B12046FFF7F0FC69
:1047900004F14C0000F040FB042084F83400204673
:1047A000FFF7CFFB012805D1A06F18B92046FFF70E
:1047B0002EFB0AE00EF0D8F9054604F11401394841
:1047C000FFF766FE28460EF0D3F9002070BD2DE9F4
:1047D000FF5F06460F4690461D46DDE90EAB3146AB
:1047E0000120FFF733FB8146B9F1000F03D1002010
:1047F00004B0BDE8F09F2846FEF7A6FE044624B9A3
:104800004846FFF772FB0020F2E743463A4631463E
:1048100048468DE8300CFFF7ACFE4846E8E770B537
:1048200004462CB94FF4DA72634920A0FEF74AFD22
:104830002046FFF797FB012805D040F2B5125E49EC
:104840002E48FEF73FFD2046FFF77BFB28B14FF4D3
:10485000DB72594959A0FEF735FD94F8340000F099
:10486000070010B12046FFF783FC04F14C0000F074
:10487000D3FA0EF079F90546042084F8340004F1E7
:1048800014010848FFF704FE28460EF071F90020D5
:1048900070BD0000FC000020000100200401002089
:1048A000E8000020F00000204F5002087468726594
:1048B000616420213D2052545F4E554C4C00000055
:1048C000287468726561642D3E73746174202620BB
:1048D00052545F5448524541445F535441545F4DD4
:1048E00041534B29203D3D2052545F54485245418D
:1048F000445F53555350454E44000000C06A0208BF
:10490000A14F02087072696F72697479203C20525D
:10491000545F5448524541445F5052494F524954A4
:10492000595F4D4158000000B14F02087374616334
:104930006B5F737461727420213D2052545F4E5539
:104940004C4C00003E500208C04F020828746872A8
:104950006561642D3E7374617420262052545F5447
:1049600048524541445F535441545F4D41534B2994
:10497000203D3D2052545F5448524541445F494ECA
:1049800049540000D24F020872745F6F626A656317
:10499000745F69735F73797374656D6F626A656361
:1049A00074282872745F6F626A6563745F74297417
:1049B0006872656164290000E34F020872745F6FDA
:1049C000626A6563745F69735F73797374656D6F31
:1049D000626A656374282872745F6F626A656374C3
:1049E0005F742974687265616429203D3D205254CA
:1049F0005F46414C5345000010B5FFF735FC0020E1
:104A000010BD70B5044634B940F2D122AE49AFF2C0
:104A10006410FEF757FC2046FFF7A4FA012805D0E2
:104A200040F2D222A849A948FEF74CFC00BF00BFC3
:104A300094F8340000F00705012D06D0032D04D0B2
:104A400000BF00BF4FF0FF3070BD0EF08DF806467E
:104A5000032D09D1FFF735FDA04205D040F2E32236
:104A600099499BA0FEF72EFC2046FFF781FB94F8A6
:104A7000340020F0070040F0020084F8340004F114
:104A80004C0000F0D6FA30460EF072F800BF97489E
:104A9000006818B1204695490968884700BF002082
:104AA000D2E731B5FFF70DFD044634B940F2EF12FD
:104AB0008F49AFF20820FEF705FC2046FFF752FAB7
:104AC000012805D04FF4F87289498048FEF7FAFBB7
:104AD0000EF04AF805462046FFF793FF6A4600218C
:104AE00004F14C0000F0D8FA04F14C0000F004FA94
:104AF00028460EF03DF8FFF7B7FB206B801C08B985
:104B000000202063002038BD10B504462046FFF782
:104B1000C8FF10BD2DE9F04104460E462CB940F205
:104B20002222744974A0FEF7CDFBFFF7CAFC0546AC
:104B300035B940F226226F49AFF29020FEF7C2FB52
:104B40002846FFF70FFA012805D040F227226949CD
:104B50005E48FEF7B7FB0EF007F80746FBF7A1FB30
:104B60002168401AB0421DD2FBF79BFB2168401A16
:104B7000304420602846FFF744FF2246002105F11B
:104B80004C0000F089FA05F14C0000F0B5F9384608
:104B90000DF0EEFFFFF768FB286B801C28B90020A2
:104BA000286302E038460DF0E3FFFBF77AFB206054
:104BB0000020BDE8F08170B504462046FBF79AFB63
:104BC00005462846FFF76DFF70BD2DE9F04104460C
:104BD0000E46154634B940F271224B49AFF23430DB
:104BE000FEF770FB2046FFF7BDF9012805D040F223
:104BF000722245493548FEF765FB3EB3012E2AD0A7
:104C0000022E2CD10DF0B0FF074694F8340000F0CE
:104C1000070001280ED12046FFF7AAFA287884F869
:104C2000350094F8351001208840A0632046FFF736
:104C3000E0FA07E0287884F8350094F83510012070
:104C40008840A06338460DF093FF09E02046FFF747
:104C500042FDBDE8F0812046FFF7E1FDF9E700BF26
:104C600000BF0020F5E72DE9F0410646FFF729FCDB
:104C700008B1FFF78FFB0120FFF72CF804462CB991
:104C800040F25532214922A0FEF71CFB656810E076
:104C9000A5F10C07082231463846FDF778FF38B9F0
:104CA000FFF70FFC08B1FFF783FB3846BDE8F08142
:104CB0002D68201D8542EBD1FFF703FC08B1FFF7FB
:104CC00077FB0020F2E700002C500208C06A0208BF
:104CD000746872656164203D3D2072745F7468720F
:104CE0006561645F73656C6628290000FC00002024
:104CF000F44F0208045002087469636B20213D20C0
:104D000052545F4E554C4C001A5002086150020834
:104D1000696E666F726D6174696F6E20213D2052FD
:104D2000545F4E554C4C00000268516002680A60A6
:104D3000016048607047FA4908607047F9490860A7
:104D400070472DE9F04704460E4617469846DDF8B1
:104D5000209084F80990607A20F001006072E6618A
:104D600027620020A062C4F82480002506E004F138
:104D7000140101EBC50000F0B2FA6D1C012DF6DB49
:104D8000BDE8F0872DE9F04104464FF0FF360DF005
:104D9000EBFE0746204600F0A5FA18B92068A0F1FE
:104DA0001405AE6A38460DF0E3FE3046BDE8F081EA
:104DB00010B50246002001460EE002F1140303EB99
:104DC000C100D0E900436360D0E900342360406053
:104DD000006000BF481C01460129EEDB10BD2DE933
:104DE000F84304460D4616461F46DDE9088924B9F6
:104DF000C322CD49CDA0FEF765FA2A460A212046F6
:104E0000FEF7BFFF43463A4631462046CDF80090B4
:104E1000FFF797FFBDE8F88370B5044624B9D822A0
:104E2000C749C2A0FEF74EFA2046FFF79BF80A28B2
:104E300004D0D922C249C3A0FEF744FA2046FFF7A6
:104E400080F820B9DA22BE49CDA0FEF73BFA0DF07A
:104E50008BFE05462046FFF7ABFF28460DF088FE87
:104E60002046FEF7D4FF002070BD2DE9F84304462C
:104E70000E4617469846DDF8209021460A20FEF798
:104E8000E5FF054615B90020BDE8F88343463A46DC
:104E900031462846CDF80090FFF753FF2846F3E748
:104EA00070B504462CB940F21712C0499FA0FEF716
:104EB00009FA2046FFF756F80A2805D04FF48C72FD
:104EC000BA49A0A0FEF7FEF92046FFF73AF828B14C
:104ED00040F21912B549B6A0FEF7F4F90DF044FE00
:104EE00005462046FFF764FF28460DF041FE2046A8
:104EF000FEF7FBFF002070BD2DE9F84305462DB9F4
:104F000040F23B12B84989A0FEF7DCF92846FFF7CA
:104F100029F80A2805D04FF49E72B34989A0FEF7FC
:104F2000D1F90DF021FE80462846FFF741FF687A4F
:104F300020F00100687240460DF01AFE00BFAB4839
:104F4000006818B12846A9490968884700BF6FF072
:104F50000041686A884205D34FF4A672A249A4A012
:104F6000FEF7B0F9FBF79DF9696A0844A8620DF0F5
:104F7000FBFD8046A74E009600242AE019E05DF86C
:104F800024201168142202EBC402881A826AAB6AD8
:104F9000D21A00D108E0826AAB6AD21A6FF00043DD
:104FA0009A4200D20CE000BF5DF8240000684DF882
:104FB00024005DF8240006EBC40149688842DED174
:104FC00000BF2CB15DF824000830611C4DF82100B1
:104FD000641C002CD2D090480068401C8E490860A8
:104FE0000846076805F114010098FFF79DFE0224AA
:104FF00012E007F0030060B9C4F1010305F11402E7
:1050000002EBC301C4F101025DF82200FFF78CFE40
:1050100000E003E0BF08641C012CEAD900BF687AF5
:1050200040F00100687240460DF0A2FD0020BDE88E
:10503000F88370B504462CB94FF4DA7277493BA077
:10504000FEF740F92046FEF78DFF0A2805D040F212
:10505000B51272493BA0FEF735F9607A00F0010005
:1050600010B94FF0FF3070BD00BF6D48006818B137
:1050700020466B490968884700BF0DF075FD05465D
:105080002046FFF795FE28460DF072FD607A20F06D
:10509000010060720020E6E770B504460E46154632
:1050A0002CB940F2D7125F4920A0FEF70BF9204639
:1050B000FEF758FF0A2805D04FF4EC72594921A099
:1050C000FEF700F9052E1ED2DFE806F00603090EF2
:1050D0001300606A286016E02868606213E0607A56
:1050E00020F0020060720EE0607A40F00200607210
:1050F00009E0607A00F0010010B10120286001E0B1
:105100000020286000BF00BF002070BD70B500BF48
:1051100000BFFBF7C6F805460DF026FD0646C0E0C9
:1051200010010020140100207050020874696D65A0
:105130007220213D2052545F4E554C4C000000001F
:105140007E50020872745F6F626A6563745F6765A0
:10515000745F74797065282674696D65722D3E7070
:105160006172656E7429203D3D2052545F4F626A22
:105170006563745F436C6173735F54696D6572003E
:1051800072745F6F626A6563745F69735F7379736A
:1051900074656D6F626A656374282674696D6572E3
:1051A0002D3E706172656E74290000008E500208F9
:1051B00072745F6F626A6563745F69735F7379733A
:1051C00074656D6F626A656374282674696D6572B3
:1051D0002D3E706172656E7429203D3D2052545FF2
:1051E00046414C53450000009E500208D800002064
:1051F00074696D65722D3E696E69745F7469636B65
:10520000203C2052545F5449434B5F4D4158202F5E
:10521000203200000801002018010020AD500208D3
:10522000DC000020BB50020832480068A0F11404E2
:10523000A06A281A6FF00041884231D200BF2E4880
:10524000006818B120462C490968884700BF2046ED
:10525000FFF7AEFDD4E907108847FBF722F80546B3
:1052600000BF2648006818B12046244909688847CD
:1052700000BF00BF00BF607A00F0020058B1607A42
:1052800000F0010038B1607A20F001006072204621
:10529000FFF732FE05E0607A20F00100607200E066
:1052A00004E0144800F01EF80028BDD000BF3046CE
:1052B0000DF05EFC00BF00BF70BD10B50D48FFF7DC
:1052C00061FD10BD10B5002405E00A4901EBC400E2
:1052D00000F005F8641C002CF7D010BD704740604A
:1052E0000060704701460868884201D1012070477C
:1052F0000020FCE70801002010010020140100201C
:1053000070B50026E24C09E02568287800F02CFAF8
:1053100010B10126304670BD2C1D00BF206800284A
:10532000F2D13046F7E770B50026D94C09E0256880
:10533000287800F02BFA10B10126304670BD2C1DE4
:1053400000BF20680028F2D13046F7E770B500268C
:10535000CF4C09E02568287800F02AFA10B1012620
:10536000304670BD2C1D00BF20680028F2D13046A9
:10537000F7E70146C64A06E0106803788B4200D181
:105380007047021D00BF10680028F5D100BFF7E785
:105390000020BF4905E00A680AB101207047111DCD
:1053A00000BF0A68002AF6D100BFF7E7F8B5054646
:1053B0000024012600F073FA2846FFF7DAFF0446BE
:1053C0000CB100BF1BE00820FEF7BEF804463CB954
:1053D000B0A30122B4A1032014F0A5F800260EE02A
:1053E0002570AB4800686060A9480460B0A3012242
:1053F000ADA10320009514F096F8002600BF00F040
:105400005EFA3046F8BDF8B505460024012600F0E6
:1054100046FA2846FFF7ADFF04460CB100BF1BE07B
:105420000820FEF791F804463CB99AA301229EA1F8
:10543000032014F078F800260EE0257094480068E8
:105440006060934804609AA3012297A1032000950D
:1054500014F069F8002600BF00F031FA3046F8BDBC
:10546000F8B506460024012700F019FA3046FFF788
:1054700080FF04460CB900271FE091480068A04255
:1054800002D100208E490860814D07E02868A042C3
:1054900002D14168296000E0051D00BF286800288E
:1054A000F4D188A3012280A10320009614F03BF8D8
:1054B0002046FEF74EF9012700BF00F000FA3846FB
:1054C000F8BD10B5002400F0EAF97D48006818B96D
:1054D0006F4800687A4908607948006878B1784870
:1054E0000068047876480068406828B1744800680D
:1054F00040687349086002E0002071490860204656
:1055000000F068F900B90024FF2C00D1002400F05D
:10551000D6F9204610BD10B5002400F0C0F9FFF701
:1055200037FF00B910E0FFF7EBFE012801D103249B
:105530000AE0FFF7F8FE012801D1022404E0FFF79A
:1055400005FF012800D1012400F0B9F9204610BD63
:1055500070B500244E480468FFF7DDFF0546294674
:105560005CA0FDF7CDFD00F09AF91CB95DA0FDF738
:10557000C7FD0EE021785EA0FDF7C2FD04E02178B2
:105580005EA0FDF7BDFD6468002CF8D15DA0FDF7BD
:10559000B7FD00F094F970BD70B500253C48046873
:1055A00000F07DF91CB900F08AF9284670BD04E0CE
:1055B00000F085F920780546F8E7002CF8D100F0D6
:1055C0007EF900BFF2E72DE9FC4104460F464E4943
:1055D00003C9CDE90001032C12D0022C10D04BA03E
:1055E000FDF78EFD002605E05DF8261049A0FDF7C9
:1055F00087FD761C022EF7D347A0FDF781FD44E01E
:10560000D7F8048045A140461DF048FF48B9022C58
:1056100004D044A00099FDF773FD35E0FFF798FF33
:1056200032E0032C04D03FA00199FDF769FD2BE087
:1056300000221146B8681DF040FD85B2FF2D00DC48
:105640001DB938A00199FDF75BFD39A140461DF059
:1056500025FF38B9E8B2FFF7A9FE294636A0FDF7C5
:105660004FFD10E039A140461DF018FF38B9E8B2EF
:10567000FFF7F6FE294637A0FDF742FD03E029A01B
:105680000199FDF73DFD00BF00BFBDE8FC810000B2
:105690001C0100207274206D616C6C6F6320657258
:1056A000726F722E000000006572726F720000004F
:1056B0006572726F7220696E736572742025640062
:1056C000200100206572726F722064656C657465DC
:1056D000202564006572726F72206C766C3A20250A
:1056E000640D0A006E6F206572726F72210D0A00E0
:1056F0006572726F722069643A2000002025642070
:10570000000000000D0A0000CC50020855736167CC
:10571000653A0A0025730A000A0000007072696E7B
:105720007400000055736167653A2025732E0A00E6
:10573000696E7365727400006572726F7220696EB3
:10574000736572742025640D0A00000064656C6541
:10575000746500006572726F722064656C657465B3
:105760002025640D0A00000010B502460020062323
:10577000002107E0204C645C944201D1012010BD5F
:105780004C1CA1B29942F5DB00BFF8E710B5024608
:1057900000200723002107E0184C645C944201D1EB
:1057A000012010BD4C1CA1B29942F5DB00BFF8E707
:1057B00010B5024600200323002107E0104C645C72
:1057C000944201D1012010BD4C1CA1B29942F5DBDD
:1057D00000BFF8E710B5024600201023002107E0C3
:1057E000084C645C944201D1012010BD4C1CA1B254
:1057F0009942F5DB00BFF8E73E01002037010020A9
:105800003401002024010020CC49097801B97047F7
:10581000032800DD032000BFF9E710B50446C748A0
:10582000007800B910BD2146C5480068FCF7A5FA0C
:1058300000BFF7E710B50446C248006820B1214612
:10584000C0480068FCF799FA10BD10B5FFF763FE79
:105850000446BD480078A04220D034B1012C10D0BD
:10586000022C0FD0032C12D110E00020B749486160
:10587000B7480068FFF7DDFB012168200EF085FDC9
:1058800006E005E00D20B149486101E000E000BFFD
:1058900000BFAD4804702046FFF7B6FF10BD10B53D
:1058A000AC48006820B98422AB49ACA0FDF70AFDE2
:1058B0004FF0FF31A7480068FBF7AFFC10BD10B5F3
:1058C000A448006820B98A22AA49A4A0FDF7FAFCDE
:1058D000A0480068FBF75CFD10BD10B5FFF7F1FDB7
:1058E00004461CB10120A449087005E0A2480078D4
:1058F00010B10020A049087010BD10B504468F48B3
:10590000007800B910BD9D48006820B9AB229C49C1
:105910009CA0FDF7D7FC214698480068FCF72DFABB
:1059200000BFEFE701460A2091FBF0F000EB4000DA
:1059300001EB4000C0B2704730B591B08F480068AD
:1059400020B9B82297498FA0FDF7BCFC08257B48F9
:10595000007808B911B030BD002210A9874800684E
:10596000FCF714FA002842D1109801283DD10020FC
:1059700013F0EFFA0B9069460BA813F039F90446BF
:105980001020ADF830000020ADF83200217D6439E0
:10599000C8B2FFF7C7FF8DF83600217C491CC8B29A
:1059A000FFF7C0FF0CA9C871207BFFF7BBFF0CA954
:1059B0000872207AFFF7B6FF0CA948722079FFF72A
:1059C000B1FF0CA988722078FFF7ACFF0CA9C87250
:1059D0000620ADF834000CA804F00BFB002072493F
:1059E00008600120FFF73CFD00E000BF00BF6E48EB
:1059F0000068082802D10120FFF7D8FC6A48006837
:105A0000082804D868480068401C6749086000BF3F
:105A1000A0E70EB502A800230122114600906348BA
:105A20000068FBF7C7FE80B9002201A9444800685E
:105A3000FCF7ACF940B902A800230522012100902F
:105A40005A480068FBF7B6FE00BF0EBD38B53D48AA
:105A5000006828B940F21312554956A0FDF732FCF0
:105A60000022694637480068FCF790F948B9009869
:105A7000C4B22046FFF7F4FC01214C480068FBF754
:105A800024FE38BD4FF4FA60FFF795F819E0FFF7F0
:105A9000C0FFFFF7DBFF6420FFF78DF84C4800885C
:105AA000642809DB00204A490880FFF7CEFEFFF793
:105AB00014FFFFF741FF04E0454800880A304449DD
:105AC0000880E4E71CB5002142A0FBF735FB214923
:105AD00008600022202141A0FCF703F82749086054
